{
  "_format": "hh-sol-artifact-1",
  "contractName": "Roulette",
  "sourceName": "contracts/Roulette.sol",
  "abi": [
    {
      "inputs": [
        {
          "internalType": "address",
          "name": "entropyAddress",
          "type": "address"
        },
        {
          "internalType": "address",
          "name": "router",
          "type": "address"
        },
        {
          "internalType": "address",
          "name": "_wxtz",
          "type": "address"
        },
        {
          "internalType": "address",
          "name": "_usdc",
          "type": "address"
        },
        {
          "internalType": "address",
          "name": "_weth",
          "type": "address"
        }
      ],
      "stateMutability": "nonpayable",
      "type": "constructor"
    },
    {
      "inputs": [],
      "name": "XTZWrapFailed",
      "type": "error"
    },
    {
      "anonymous": false,
      "inputs": [
        {
          "indexed": true,
          "internalType": "address",
          "name": "user",
          "type": "address"
        },
        {
          "indexed": false,
          "internalType": "uint64",
          "name": "sequenceNumber",
          "type": "uint64"
        },
        {
          "indexed": false,
          "internalType": "bytes32",
          "name": "userRandomNumber",
          "type": "bytes32"
        }
      ],
      "name": "Spin",
      "type": "event"
    },
    {
      "anonymous": false,
      "inputs": [
        {
          "indexed": true,
          "internalType": "address",
          "name": "user",
          "type": "address"
        },
        {
          "indexed": false,
          "internalType": "uint64",
          "name": "sequenceNumber",
          "type": "uint64"
        },
        {
          "indexed": false,
          "internalType": "int256",
          "name": "finalNumber",
          "type": "int256"
        },
        {
          "indexed": false,
          "internalType": "address",
          "name": "tokenOut",
          "type": "address"
        },
        {
          "indexed": false,
          "internalType": "uint256",
          "name": "amountOut",
          "type": "uint256"
        }
      ],
      "name": "Swap",
      "type": "event"
    },
    {
      "inputs": [
        {
          "internalType": "uint64",
          "name": "sequence",
          "type": "uint64"
        },
        {
          "internalType": "address",
          "name": "provider",
          "type": "address"
        },
        {
          "internalType": "bytes32",
          "name": "randomNumber",
          "type": "bytes32"
        }
      ],
      "name": "_entropyCallback",
      "outputs": [],
      "stateMutability": "nonpayable",
      "type": "function"
    },
    {
      "inputs": [],
      "name": "getFee",
      "outputs": [
        {
          "internalType": "uint256",
          "name": "",
          "type": "uint256"
        }
      ],
      "stateMutability": "view",
      "type": "function"
    },
    {
      "inputs": [],
      "name": "poolFee",
      "outputs": [
        {
          "internalType": "uint24",
          "name": "",
          "type": "uint24"
        }
      ],
      "stateMutability": "view",
      "type": "function"
    },
    {
      "inputs": [
        {
          "internalType": "bytes32",
          "name": "userRandomNumber",
          "type": "bytes32"
        }
      ],
      "name": "spin",
      "outputs": [
        {
          "internalType": "uint64",
          "name": "",
          "type": "uint64"
        }
      ],
      "stateMutability": "payable",
      "type": "function"
    },
    {
      "inputs": [],
      "name": "swapRouter",
      "outputs": [
        {
          "internalType": "contract ISwapRouter",
          "name": "",
          "type": "address"
        }
      ],
      "stateMutability": "view",
      "type": "function"
    }
  ],
  "bytecode": "0x6101006040523480156200001257600080fd5b506040516200164338038062001643833981810160405281019062000038919062000335565b846000806101000a81548173ffffffffffffffffffffffffffffffffffffffff021916908373ffffffffffffffffffffffffffffffffffffffff16021790555060008054906101000a900473ffffffffffffffffffffffffffffffffffffffff1673ffffffffffffffffffffffffffffffffffffffff166382ee990c6040518163ffffffff1660e01b8152600401602060405180830381865afa158015620000e4573d6000803e3d6000fd5b505050506040513d601f19601f820116820180604052508101906200010a9190620003bd565b600160006101000a81548173ffffffffffffffffffffffffffffffffffffffff021916908373ffffffffffffffffffffffffffffffffffffffff1602179055508373ffffffffffffffffffffffffffffffffffffffff1660e08173ffffffffffffffffffffffffffffffffffffffff16815250508273ffffffffffffffffffffffffffffffffffffffff1660808173ffffffffffffffffffffffffffffffffffffffff16815250508173ffffffffffffffffffffffffffffffffffffffff1660a08173ffffffffffffffffffffffffffffffffffffffff16815250508073ffffffffffffffffffffffffffffffffffffffff1660c08173ffffffffffffffffffffffffffffffffffffffff168152505060805173ffffffffffffffffffffffffffffffffffffffff1663095ea7b3857fffffffffffffffffffffffffffffffffffffffffffffffffffffffffffffffff6040518363ffffffff1660e01b8152600401620002799291906200041b565b6020604051808303816000875af115801562000299573d6000803e3d6000fd5b505050506040513d601f19601f82011682018060405250810190620002bf919062000485565b505050505050620004b7565b600080fd5b600073ffffffffffffffffffffffffffffffffffffffff82169050919050565b6000620002fd82620002d0565b9050919050565b6200030f81620002f0565b81146200031b57600080fd5b50565b6000815190506200032f8162000304565b92915050565b600080600080600060a08688031215620003545762000353620002cb565b5b600062000364888289016200031e565b955050602062000377888289016200031e565b94505060406200038a888289016200031e565b93505060606200039d888289016200031e565b9250506080620003b0888289016200031e565b9150509295509295909350565b600060208284031215620003d657620003d5620002cb565b5b6000620003e6848285016200031e565b91505092915050565b620003fa81620002f0565b82525050565b6000819050919050565b620004158162000400565b82525050565b6000604082019050620004326000830185620003ef565b6200044160208301846200040a565b9392505050565b60008115159050919050565b6200045f8162000448565b81146200046b57600080fd5b50565b6000815190506200047f8162000454565b92915050565b6000602082840312156200049e576200049d620002cb565b5b6000620004ae848285016200046e565b91505092915050565b60805160a05160c05160e051611144620004ff600039600081816104a9015261074701526000610613015260006105eb015260008181610259015261064501526111446000f3fe60806040526004361061004a5760003560e01c8063089fe6aa1461004f57806352a5f1f81461007a57806377f48f94146100a3578063c31c9c07146100d3578063ced72f87146100fe575b600080fd5b34801561005b57600080fd5b50610064610129565b6040516100719190610930565b60405180910390f35b34801561008657600080fd5b506100a1600480360381019061009c9190610a24565b61012f565b005b6100bd60048036038101906100b89190610a77565b610229565b6040516100ca9190610ab3565b60405180910390f35b3480156100df57600080fd5b506100e86104a7565b6040516100f59190610b2d565b60405180910390f35b34801561010a57600080fd5b506101136104cb565b6040516101209190610b61565b60405180910390f35b6101f481565b60006101396105a5565b9050600073ffffffffffffffffffffffffffffffffffffffff168173ffffffffffffffffffffffffffffffffffffffff16036101aa576040517f08c379a00000000000000000000000000000000000000000000000000000000081526004016101a190610bd9565b60405180910390fd5b8073ffffffffffffffffffffffffffffffffffffffff163373ffffffffffffffffffffffffffffffffffffffff1614610218576040517f08c379a000000000000000000000000000000000000000000000000000000000815260040161020f90610c6b565b60405180910390fd5b6102238484846105ce565b50505050565b6000806102346104cb565b9050678ac7230489e800008161024a9190610cba565b341461025557600080fd5b60007f000000000000000000000000000000000000000000000000000000000000000073ffffffffffffffffffffffffffffffffffffffff16678ac7230489e800006040516102a390610d1f565b60006040518083038185875af1925050503d80600081146102e0576040519150601f19603f3d011682016040523d82523d6000602084013e6102e5565b606091505b5050905080610320576040517f8c4d0c8b00000000000000000000000000000000000000000000000000000000815260040160405180910390fd5b60008060009054906101000a900473ffffffffffffffffffffffffffffffffffffffff1673ffffffffffffffffffffffffffffffffffffffff166319cb825f84600160009054906101000a900473ffffffffffffffffffffffffffffffffffffffff16886040518463ffffffff1660e01b81526004016103a1929190610d52565b60206040518083038185885af11580156103bf573d6000803e3d6000fd5b50505050506040513d601f19601f820116820180604052508101906103e49190610d90565b905033600260008367ffffffffffffffff1667ffffffffffffffff16815260200190815260200160002060006101000a81548173ffffffffffffffffffffffffffffffffffffffff021916908373ffffffffffffffffffffffffffffffffffffffff1602179055503373ffffffffffffffffffffffffffffffffffffffff167f4160bd64c19504efee169a5c93e8fa82e2b905165c3cd093434c1338484e84018287604051610494929190610dbd565b60405180910390a2809350505050919050565b7f000000000000000000000000000000000000000000000000000000000000000081565b60008060008054906101000a900473ffffffffffffffffffffffffffffffffffffffff1673ffffffffffffffffffffffffffffffffffffffff1663b88c9148600160009054906101000a900473ffffffffffffffffffffffffffffffffffffffff166040518263ffffffff1660e01b81526004016105499190610de6565b602060405180830381865afa158015610566573d6000803e3d6000fd5b505050506040513d601f19601f8201168201806040525081019061058a9190610e49565b6fffffffffffffffffffffffffffffffff1690508091505090565b60008060009054906101000a900473ffffffffffffffffffffffffffffffffffffffff16905090565b60006105dd82600160646108d1565b9050600060328213610611577f00000000000000000000000000000000000000000000000000000000000000009050610635565b7f000000000000000000000000000000000000000000000000000000000000000090505b60006040518061010001604052807f000000000000000000000000000000000000000000000000000000000000000073ffffffffffffffffffffffffffffffffffffffff1681526020018373ffffffffffffffffffffffffffffffffffffffff1681526020016101f462ffffff168152602001600260008967ffffffffffffffff1667ffffffffffffffff16815260200190815260200160002060009054906101000a900473ffffffffffffffffffffffffffffffffffffffff1673ffffffffffffffffffffffffffffffffffffffff168152602001428152602001678ac7230489e80000815260200160008152602001600073ffffffffffffffffffffffffffffffffffffffff16815250905060007f000000000000000000000000000000000000000000000000000000000000000073ffffffffffffffffffffffffffffffffffffffff1663414bf389836040518263ffffffff1660e01b815260040161079e9190610f54565b6020604051808303816000875af11580156107bd573d6000803e3d6000fd5b505050506040513d601f19601f820116820180604052508101906107e19190610f9c565b9050600260008867ffffffffffffffff1667ffffffffffffffff16815260200190815260200160002060009054906101000a900473ffffffffffffffffffffffffffffffffffffffff1673ffffffffffffffffffffffffffffffffffffffff167ffac2ee0f215447f9da7602bda1129253ebf6332a264972931c6f9dd71c3c3c81888686856040516108769493929190610fe2565b60405180910390a2600260008867ffffffffffffffff1667ffffffffffffffff16815260200190815260200160002060006101000a81549073ffffffffffffffffffffffffffffffffffffffff021916905550505050505050565b600080600184846108e29190611027565b6108ec919061106a565b9050808560001c6108fd91906110dd565b84610908919061106a565b9150509392505050565b600062ffffff82169050919050565b61092a81610912565b82525050565b60006020820190506109456000830184610921565b92915050565b600080fd5b600067ffffffffffffffff82169050919050565b61096d81610950565b811461097857600080fd5b50565b60008135905061098a81610964565b92915050565b600073ffffffffffffffffffffffffffffffffffffffff82169050919050565b60006109bb82610990565b9050919050565b6109cb816109b0565b81146109d657600080fd5b50565b6000813590506109e8816109c2565b92915050565b6000819050919050565b610a01816109ee565b8114610a0c57600080fd5b50565b600081359050610a1e816109f8565b92915050565b600080600060608486031215610a3d57610a3c61094b565b5b6000610a4b8682870161097b565b9350506020610a5c868287016109d9565b9250506040610a6d86828701610a0f565b9150509250925092565b600060208284031215610a8d57610a8c61094b565b5b6000610a9b84828501610a0f565b91505092915050565b610aad81610950565b82525050565b6000602082019050610ac86000830184610aa4565b92915050565b6000819050919050565b6000610af3610aee610ae984610990565b610ace565b610990565b9050919050565b6000610b0582610ad8565b9050919050565b6000610b1782610afa565b9050919050565b610b2781610b0c565b82525050565b6000602082019050610b426000830184610b1e565b92915050565b6000819050919050565b610b5b81610b48565b82525050565b6000602082019050610b766000830184610b52565b92915050565b600082825260208201905092915050565b7f456e74726f70792061646472657373206e6f7420736574000000000000000000600082015250565b6000610bc3601783610b7c565b9150610bce82610b8d565b602082019050919050565b60006020820190508181036000830152610bf281610bb6565b9050919050565b7f4f6e6c7920456e74726f70792063616e2063616c6c20746869732066756e637460008201527f696f6e0000000000000000000000000000000000000000000000000000000000602082015250565b6000610c55602383610b7c565b9150610c6082610bf9565b604082019050919050565b60006020820190508181036000830152610c8481610c48565b9050919050565b7f4e487b7100000000000000000000000000000000000000000000000000000000600052601160045260246000fd5b6000610cc582610b48565b9150610cd083610b48565b9250828201905080821115610ce857610ce7610c8b565b5b92915050565b600081905092915050565b50565b6000610d09600083610cee565b9150610d1482610cf9565b600082019050919050565b6000610d2a82610cfc565b9150819050919050565b610d3d816109b0565b82525050565b610d4c816109ee565b82525050565b6000604082019050610d676000830185610d34565b610d746020830184610d43565b9392505050565b600081519050610d8a81610964565b92915050565b600060208284031215610da657610da561094b565b5b6000610db484828501610d7b565b91505092915050565b6000604082019050610dd26000830185610aa4565b610ddf6020830184610d43565b9392505050565b6000602082019050610dfb6000830184610d34565b92915050565b60006fffffffffffffffffffffffffffffffff82169050919050565b610e2681610e01565b8114610e3157600080fd5b50565b600081519050610e4381610e1d565b92915050565b600060208284031215610e5f57610e5e61094b565b5b6000610e6d84828501610e34565b91505092915050565b610e7f816109b0565b82525050565b610e8e81610912565b82525050565b610e9d81610b48565b82525050565b610eac81610990565b82525050565b61010082016000820151610ec96000850182610e76565b506020820151610edc6020850182610e76565b506040820151610eef6040850182610e85565b506060820151610f026060850182610e76565b506080820151610f156080850182610e94565b5060a0820151610f2860a0850182610e94565b5060c0820151610f3b60c0850182610e94565b5060e0820151610f4e60e0850182610ea3565b50505050565b600061010082019050610f6a6000830184610eb2565b92915050565b610f7981610b48565b8114610f8457600080fd5b50565b600081519050610f9681610f70565b92915050565b600060208284031215610fb257610fb161094b565b5b6000610fc084828501610f87565b91505092915050565b6000819050919050565b610fdc81610fc9565b82525050565b6000608082019050610ff76000830187610aa4565b6110046020830186610fd3565b6110116040830185610d34565b61101e6060830184610b52565b95945050505050565b600061103282610fc9565b915061103d83610fc9565b925082820390508181126000841216828213600085121516171561106457611063610c8b565b5b92915050565b600061107582610fc9565b915061108083610fc9565b9250828201905082811215600083121683821260008412151617156110a8576110a7610c8b565b5b92915050565b7f4e487b7100000000000000000000000000000000000000000000000000000000600052601260045260246000fd5b60006110e882610b48565b91506110f383610b48565b925082611103576111026110ae565b5b82820690509291505056fea2646970667358221220c65e2d36b2c3330976ad7576c8322915b7c84bbe3f14da609ce4dd6320a14e2e64736f6c63430008140033",
  "linkReferences": {},
  "deployedLinkReferences": {}
}